:100000000C945C010C94710C0C94A20C0C94D30C09
:100010000C94040D0C94350D0C94660D0C94970DF6
:100020000C94C80D0C948D010C948D010C948D01D1
:100030000C948D010C94A00B0C948D010C948D01EB
:100040000C948D010C948D010C948D010C948D01F8
:100050000C948D010C948D010C948D010C94060E62
:100060000C948D010C94A4040C9494050C948D01B3
:100070000C948D010C948D010C948D010C948D01C8
:100080000C948D010C948D010C948D010C948D01B8
:100090000C94D8040C94D3050C948D010C948D0110
:1000A0000C948D010C948D010C948D010C948D0198
:1000B0000C948D010C948D010C948D010C948D0188
:1000C0000C948D010C948D010C948D010C940C05F5
:1000D0000C9412060C948D010C9440050C9451065E
:1000E0000C948D014B0C150C1D0C290C360C570C67
:1000F000640C410F440F370F3B0F7B0F480F4C0F21
:10010000520F560F5A0F600F640F680F7B0F6E0F60
:10011000720F760F020000090A02080B0C0D070689
:1001200003040100000000000000000000000000C7
:1001300000000000000000000000000000000000BF
:100140000011100F0000000000000000000000007F
:10015000000000000000000000000001021020204C
:10016000080810204010204080020102010804020B
:100170000101020408102040808040201008040281
:1001800001800402018040201008040201080402DA
:1001900001010204081020408001020408102040E0
:1001A0008005050505070508080808020202020A7D
:1001B0000A0808040404040101010101010101030A
:1001C00003030303030303040707070C0C0C0C0CC5
:1001D0000C0C0C0202020206060606060606060BB8
:1001E0000B0B0B0B0B0B0B00002000230026002930
:1001F000002C002F0032000001000003010601095D
:100200000100002200250028002B002E00310034C0
:100210000002010000050108010B0100002100247B
:100220000027002A002D00300033000101000004E7
:100230000107010A01000C94760F0C94440F0C94F2
:10024000600F0C947B0F0C9473050C9405040C94B4
:1002500020040C944C0F0C94680F0C94290C0C94F3
:10026000F3030C94640F0C9442040C9447080C9410
:10027000520F0C9411070C94360C0C94480F0C94EC
:10028000640C0C94720F0C946E0F0C94410F0C9430
:10029000150C0C94370F0C944D040C945A0F0C94BD
:1002A000560F0C94570C0C941D0C0C943B0F0C9493
:1002B0004B0C0C948F01110711241FBECFEFD1E21C
:1002C000DEBFCDBF00E00CBF12E0A0E0B2E0E4E290
:1002D000F5E200E00BBF02C007900D92A632B10715
:1002E000D9F715E0A6E2B2E001C01D92A434B1072F
:1002F000E1F712E0C8EBD2E000E006C02297010966
:10030000FE010BBF0E948C12C63BD10780E008079C
:10031000A9F70E94F90D0C9490120C940000CF9351
:10032000DF9300D01F92CDB7DEB70E945C0E209104
:10033000510230915202409153025091540229834C
:100340003A834B835C830E94121129813A814B814D
:100350005C810E9414106093550270935602809342
:100360005702909358020E945C0E0E9412116093F3
:1003700051027093520280935302909354020F9053
:100380000F900F900F90DF91CF91089561E081E27F
:100390000E947C0F61E08BE10E947C0F61E087E1AD
:1003A0000E947C0F61E088E10E947C0F60E08CE09D
:1003B0000E947C0F60E08BE00E947C0F60E082E096
:1003C0000E947C0F61E082E20E947C0F0E94500E2E
:1003D00060934102709342028093430290934402DF
:1003E00060933D0270933E0280933F0290934002DF
:1003F00042E050E06FE871E080E00E94000C40E8CD
:1004000055E260E070E08FEB92E00E94900640E8D9
:1004100055E260E070E089E592E00C94900660E0BF
:1004200081E20E94B50F60E08BE10E94B50F60E0B1
:1004300087E10E94B50F60E088E10E94B50F61E09E
:1004400082E20E94B50F62E370E080E090E00E94DB
:100450007F0E60E082E20E94B50F28EC30E040E0C1
:1004600050E060ED77E088E00E946F0860ED77E093
:1004700080E090E00E947F0E61E081E20E94B50F73
:1004800061E08BE10E94B50F61E087E10E94B50F4A
:1004900061E088E10E94B50FC1E0D0E032E3C32EF5
:1004A000D12C04E610E045E0E42EF12C82E00E941D
:1004B000EB0F5C0180912C0290912D02A816B906D9
:1004C00051F00E94500E609328027093290280938D
:1004D0002A0290932B020E94500E409028025090C6
:1004E000290260902A0270902B026419750986090E
:1004F00097094090060250900702609008027090A1
:100500000902461657066806790630F580912E02D4
:1005100090912F02A816B906F9F0B0922F02A0927E
:100520002E02AA94AB28C1F4809134029091350236
:1005300024E0959587952A95E1F7892B21F0109273
:100540003502109234028091340290913502019666
:100550009093350280933402809134029091350259
:1005600020913202309133028217930721F01092CA
:10057000310210923002009709F450C020913002ED
:1005800030913102232B09F055C08230910541F1A1
:10059000ACF48130910509F04DC0209110023091EA
:1005A00011023093390220933802109337020093DE
:1005B000360290933102809330023CC08330910523
:1005C000E1F00497B9F580910A0290910B029093A3
:1005D000390280933802109337020093360226C006
:1005E00080910E0290910F0290933902809338020D
:1005F000D0923702C092360219C080910C029091BD
:100600000D029093390280933802D0933102C09347
:100610003002D0933702C09336020CC010923902D8
:10062000109238021092370210923602D0933102A3
:10063000C09330020E94500E6093410270934202B8
:10064000809343029093440240903D0250903E02BA
:1006500060903F027090400222E3420E511C611CE8
:10066000711C641575058605970508F456C08091C0
:1006700004020E94070FBC01882777FD8095982F00
:100680000E94141120910002309101024091020257
:10069000509103020E9479100E94E110709327028A
:1006A000609326028CE00E94EB0F80933C028BE06B
:1006B0000E94EB0F80933B0290913C0291111BC072
:1006C00020913A022223B9F0409138025091390228
:1006D0002091360230913702882339F0240F351FDC
:1006E000309339022093380206C0421B530B5093BB
:1006F00039024093380290933A02809141029091DE
:100700004202A0914302B091440280933D02909333
:100710003E02A0933F02B093400280914902909123
:100720004A02909348028093470280914B02909135
:100730004C0290934A028093490280914D0290911D
:100740004E0290934C0280934B0280914F02909105
:10075000500290934E0280934D0260915502709129
:100760005602809157029091580220E030E040E814
:1007700050E40E94A0119B01AC0160E074E284E7A8
:1007800099E40E94791020E030E040E752E40E94B2
:10079000A0110E94E1107093500260934F0280916B
:1007A000470290914802E0914902F0914A0260911B
:1007B0004B0270914C0240914D0250914E0220919B
:1007C0004F02309150028E0F9F1F860F971F840F8C
:1007D000951F820F931FB7010E940E12709346025D
:1007E0006093450263CEFC0124853585F901E05C08
:1007F000FF4F80819181F901EE5BFF4F20813181B4
:10080000821B930B8F7399270895FC01848595852E
:10081000FC01E05CFF4F40815181FC01EE5BFF4F2A
:10082000208131814217530741F00190F081E02D82
:10083000E80FF91F808190E008958FEF9FEF0895F2
:10084000FC0184859585FC01E05CFF4F408151816E
:10085000FC01EE5BFF4F208131814217530779F095
:10086000A081B181A80FB91F8C91208131812F5FA8
:100870003F4F2F7333273183208390E008958FEF0C
:100880009FEF0895FC0181A1882329F0A489B589EF
:100890008C9186FFFBCF11A20895CF93DF93FC01CB
:1008A00026853785D901A05CBF4F8D919C9111970A
:1008B00001968F739927E901CE5BDF4F48815981FB
:1008C00084179507D9F30D90BC91A02DA20FB31FEB
:1008D0006C93A685B785A05CBF4F11969C938E93B1
:1008E000A689B7892C9181E090E0078C02C0880F1F
:1008F000991F0A94E2F7282B2C9381E081A30488A6
:10090000F589E02D80818064808381E090E0DF9133
:10091000CF910895FB01E05CFF4F208131812F5F73
:100920003F4F2F733327DB01AE5BBF4F4D915C917F
:100930002417350739F0A081B181A60FB71F8C931A
:1009400031832083089508951F920F920FB60F925E
:1009500011240BB60F922F933F934F935F936F9396
:100960007F938F939F93AF93BF93EF93FF93809168
:10097000C00082FD07C08091C6006DEB74E00E944C
:100980008A0402C08091C600FF91EF91BF91AF91A0
:100990009F918F917F916F915F914F913F912F9197
:1009A0000F900BBE0F900FBE0F901F9018950895DB
:1009B0001F920F920FB60F9211240BB60F922F9326
:1009C0003F934F935F936F937F938F939F93AF93D7
:1009D000BF93EF93FF938091C80082FD07C0809181
:1009E000CE0065E374E00E948A0402C08091CE00CC
:1009F000FF91EF91BF91AF919F918F917F916F91F7
:100A00005F914F913F912F910F900BBE0F900FBEB2
:100A10000F901F90189508951F920F920FB60F9286
:100A200011240BB60F922F933F934F935F936F93C5
:100A30007F938F939F93AF93BF93EF93FF93809197
:100A4000D00082FD07C08091D6006DEA73E00E945D
:100A50008A0402C08091D600FF91EF91BF91AF91BF
:100A60009F918F917F916F915F914F913F912F91C6
:100A70000F900BBE0F900FBE0F901F90189508950A
:100A80001F920F920FB60F9211240BB60F922F9355
:100A90003F934F935F936F937F938F939F93AF9306
:100AA000BF93EF93FF938091300182FD07C0809147
:100AB000360165E273E00E948A0402C0809136012B
:100AC000FF91EF91BF91AF919F918F917F916F9126
:100AD0005F914F913F912F910F900BBE0F900FBEE2
:100AE0000F901F9018958FEB92E00E94F303892BD3
:100AF00011F00E94A3048DE992E00E94F303892B78
:100B000011F00E94D7048BE792E00E94F303892B37
:100B100011F00E940B0589E592E00E94F303892BF6
:100B200011F00C943F0508951F920F920FB60F928B
:100B300011240BB60F922F933F938F939F93EF93B4
:100B4000FF932091B9043091BA048091BB04909135
:100B5000BC042817390731F48091C1008F7D809340
:100B6000C10014C0E091BB04F091BC04E758FB4FF6
:100B700020818091BB049091BC0401968F739927CA
:100B80009093BC048093BB042093C600FF91EF9127
:100B90009F918F913F912F910F900BBE0F900FBEA1
:100BA0000F901F9018951F920F920FB60F9211245D
:100BB0000BB60F922F933F938F939F93EF93FF93D7
:100BC00020913104309132048091330490913404A7
:100BD0002817390731F48091C9008F7D8093C900AF
:100BE00014C0E0913304F0913404EF50FC4F2081A5
:100BF000809133049091340401968F7399279093D8
:100C00003404809333042093CE00FF91EF919F91A1
:100C10008F913F912F910F900BBE0F900FBE0F90B1
:100C20001F9018951F920F920FB60F9211240BB6BA
:100C30000F922F933F938F939F93EF93FF93209166
:100C4000A9033091AA038091AB039091AC032817BC
:100C5000390731F48091D1008F7D8093D10014C089
:100C6000E091AB03F091AC03E759FC4F20818091F8
:100C7000AB039091AC0301968F7399279093AC03CB
:100C80008093AB032093D600FF91EF919F918F91BA
:100C90003F912F910F900BBE0F900FBE0F901F90A2
:100CA00018951F920F920FB60F9211240BB60F9248
:100CB0002F933F938F939F93EF93FF932091210363
:100CC0003091220380912303909124032817390740
:100CD00031F4809131018F7D8093310114C0E09116
:100CE0002303F0912403EF51FD4F208180912303D2
:100CF0009091240301968F739927909324038093F6
:100D0000230320933601FF91EF919F918F913F91A3
:100D10002F910F900BBE0F900FBE0F901F90189544
:100D2000CF92DF92EF92FF92CF93DF93EC016A01B3
:100D30007B01411581EE580761057105F9F0EC89D9
:100D4000FD8981E090E008A002C0880F991F0A94F5
:100D5000E2F7808360E079E08DE390E0A7019601FF
:100D60000E94221221503109410951095695479597
:100D700037952795211580E1380798F0EC89FD8992
:100D8000108260E874E88EE190E0A70196010E946D
:100D9000221221503109410951095695479537953D
:100DA0002795E889F9893083EA89FB89208319A28C
:100DB000EE89FF89408181E090E09C010C8C02C0AB
:100DC000220F331F0A94E2F7422B4083EE89FF89FA
:100DD00040819C010D8C02C0220F331F0A94E2F760
:100DE000422B4083EE89FF8940819C010E8C02C01A
:100DF000220F331F0A94E2F7422B4083EE89FF89CA
:100E000020810F8C02C0880F991F0A94E2F7809509
:100E100082238083DF91CF91FF90EF90DF90CF907E
:100E20000895CF931092C2021092C10288EE93E00F
:100E3000A0E0B0E08093C3029093C402A093C502E7
:100E4000B093C6022AE132E03093C0022093BF0281
:100E50004DEB54E05093CC024093CB0249E754E071
:100E60005093CE024093CD0245EC50E05093D00217
:100E70004093CF0244EC50E05093D2024093D10211
:100E800040EC50E05093D4024093D30241EC50E048
:100E90005093D6024093D50242EC50E05093D802D2
:100EA0004093D70246EC50E05093DA024093D902C7
:100EB000C4E0C093DB02F3E0F093DC02E7E0E093F0
:100EC000DD0275E07093DE0261E06093DF02109254
:100ED000A00210929F028093A1029093A202A0937D
:100EE000A302B093A40230939E0220939D0245E397
:100EF00054E05093AA024093A90241EF53E050936B
:100F0000AC024093AB024DEC50E05093AE024093E4
:100F1000AD024CEC50E05093B0024093AF0248EC6D
:100F200050E05093B2024093B10249EC50E050932C
:100F3000B4024093B3024AEC50E05093B60240939F
:100F4000B5024EEC50E05093B8024093B702C09304
:100F5000B902F093BA02E093BB027093BC026093B3
:100F6000BD0210927E0210927D0280937F029093C8
:100F70008002A0938102B093820230937C0220937E
:100F80007B024DEA53E0509388024093870249E682
:100F900053E050938A024093890245ED50E050930C
:100FA0008C0240938B0244ED50E050938E024093AC
:100FB0008D0240ED50E05093900240938F0241ED3E
:100FC00050E0509392024093910242ED50E05093D2
:100FD00094024093930246ED50E050939602409362
:100FE0009502C0939702F0939802E0939902709350
:100FF0009A0260939B0210925C0210925B028093B3
:101000005D0290935E02A0935F02B0936002309302
:101010005A022093590285E293E0909366028093EE
:10102000650281EE92E0909368028093670285E307
:1010300091E090936A028093690284E391E0909337
:101040006C0280936B0280E391E090936E02809338
:101050006D0281E391E09093700280936F0282E3CE
:1010600091E0909372028093710286E391E09093F5
:10107000740280937302C0937502F0937602E0933A
:1010800077027093780260937902CF910895CF929E
:10109000DF92EF92FF920F931F93CF93DF936C0138
:1010A0007A01EB01E60EF71E00E010E0CE15DF0539
:1010B00061F06991D601ED91FC910190F081E02DF4
:1010C000C6011995080F191FF1CFC801DF91CF9103
:1010D0001F910F91FF90EF90DF90CF9008953F9276
:1010E0004F925F926F927F928F929F92AF92BF9238
:1010F000CF92DF92EF92FF920F931F93CF93DF93E4
:1011000000D01F92CDB7DEB78B0129013A01909133
:101110001402981721F09F3F09F0B6C204C0E4E121
:10112000F1E0349004C180931402E4E1F1E0E49131
:10113000EF3F09F4A9C2E23009F480C074F5EE2350
:1011400009F45BC0E13009F0F1C010928000109208
:10115000810090918100986090938100909181002E
:10116000916090938100282F30E0F901EF55FE4FF8
:10117000E491F0E0EE0FFF1FEF5FFD4F45915491BA
:1011800050931F0540931E05F901E55AFE4F249127
:1011900020931D0533243394CCC0E43009F49EC061
:1011A0000CF474C0E53009F0C1C010922001109217
:1011B000210190912101986090932101909121014A
:1011C000916090932101282F30E0F901EF55FE4FF7
:1011D000E491F0E0EE0FFF1FEF5FFD4F459154915A
:1011E0005093030540930205F901E55AFE4F2491FF
:1011F0002093010555E0352E9CC014BC15BC94B558
:10120000926094BD95B5916095BD282F30E0F901AD
:10121000EF55FE4FE491F0E0EE0FFF1FEF5FFD4F43
:10122000459154915093260540932505F901E55ABF
:10123000FE4F249120932405312C7BC01092B000E6
:101240001092B1009091B00092609093B000909194
:10125000B10091609093B100282F30E0F901EF5573
:10126000FE4FE491F0E0EE0FFF1FEF5FFD4F459161
:1012700054915093180540931705F901E55AFE4F14
:1012800024912093160522E0322E53C01092900034
:10129000109291009091910098609093910090919C
:1012A0009100916090939100282F30E0F901EF5563
:1012B000FE4FE491F0E0EE0FFF1FEF5FFD4F459111
:1012C00054915093110540931005F901E55AFE4FD2
:1012D000249120930F05B3E03B2E2BC01092A00069
:1012E0001092A1009091A10098609093A10090911C
:1012F000A10091609093A100282F30E0F901EF55F3
:10130000FE4FE491F0E0EE0FFF1FEF5FFD4F4591C0
:10131000549150930A0540930905F901E55AFE4F8F
:1013200024912093080574E0372E03C03E2E37FC2D
:10133000ABC161E00E947C0F4801A12CB12C832D30
:101340008D7F09F0C0C060E072E18AE790E0A501FE
:1013500094010E94441229833A834B835C83690180
:101360007A0181E0C81AD108E108F1089FEFC91697
:10137000D104E104F10409F008F49AC060E472E4D5
:101380008FE090E0A50194010E94441269017A0166
:10139000E1E0CE1AD108E108F108F2E03F1219C0ED
:1013A0008FEFC816D104E104F10409F008F487C0F6
:1013B00060E970ED83E090E0A50194010E94441281
:1013C00069017A0191E0C91AD108E108F10883E0C6
:1013D00001C082E0EFEFCE16D104E104F10409F080
:1013E00008F467C068E478EE81E090E0A50194011C
:1013F0000E94441269017A01F1E0CF1AD108E10894
:10140000F1083320E1F082E038121BC09FEFC916CB
:10141000D104E104F10409F008F434C164E274EF8A
:1014200080E090E0A50194010E94441269017A01D4
:10143000E1E0CE1AD108E108F10885E003C083E0BD
:1014400001C084E0FFEFCF16D104E104F10489F17B
:1014500080F162E17AE780E090E0A50194010E94CA
:10146000441269017A0181E0C81AD108E108F10843
:10147000311002C084E001C086E09FEFC916D1049C
:10148000E104F104B1F0A8F0C980DA80EB80FC80BF
:101490009AE0F594E794D794C7949A95D1F7E1E050
:1014A000CE1AD108E108F108332031F087E008C0F6
:1014B00081E0332011F004C085E085BD52C082E098
:1014C0008093B1004EC060E072E18AE790E0A50130
:1014D00094010E94441269017A01F1E0CF1AD10807
:1014E000E108F108C114D10481E0E806F10488F0B4
:1014F00068E478EE81E090E0A50194010E94441236
:1015000069017A0191E0C91AD108E108F10893E074
:1015100001C091E0E1E03E1207C080918100887F28
:10152000892B809381001DC0F3E03F1207C080919A
:101530009100887F892B8093910013C084E038123A
:1015400007C08091A100887F892B8093A10009C0EA
:10155000E5E03E1206C080912101887F892B8093AF
:101560002101411451046104710471F0D801AA0FE2
:10157000BB1FA30192010E94031228EE33E040E05A
:1015800050E00E94221203C02FEF3FEFA901F2E0CA
:101590003F1609F443C0F315BCF0332081F181E01C
:1015A000381272C0D0928900C09288002093200522
:1015B00030932105409322055093230580916F00BD
:1015C000826080936F0060C094E0391609F448C0CF
:1015D0003916A4F1E5E03E1257C0D0922901C0921D
:1015E0002801209304053093050540930605509388
:1015F00007058091730082608093730045C0C7BC6B
:1016000020932705309328054093290550932A05F8
:1016100080916E00826080936E0036C0C092B300ED
:101620002093190530931A0540931B0550931C0510
:101630008091700082608093700026C0D0929900E3
:10164000C09298002093120530931305409314051F
:10165000509315058091710082608093710014C0D1
:10166000D092A900C092A80020930B0530930C05DE
:1016700040930D0550930E05809172008260809317
:10168000720002C084E01CCF0F900F900F900F905B
:10169000DF91CF911F910F91FF90EF90DF90CF904E
:1016A000BF90AF909F908F907F906F905F904F9082
:1016B0003F9008958230A9F028F4882349F08130C2
:1016C00051F00895843009F1E8F0853009F108956A
:1016D00010926E00089580916F008D7F80936F004F
:1016E0000895809170008D7F8093700081E08093D9
:1016F000B0008091B100887F84608093B100109227
:10170000B300089510927100089510927200089528
:10171000109273000895CF93C82F809114028C13F8
:1017200007C0E4E1F1E084919FEF9093140201C0BF
:101730008FEF0E945A0B60E08C2FCF910C94B50F65
:101740001F920F920FB60F9211240BB60F922F9388
:101750003F934F935F936F937F938F939F93AF9339
:10176000BF93EF93FF938091190590911A05A09173
:101770001B05B0911C05892B8A2B8B2B51F1909165
:101780001605E0911705F09118058081892780835F
:101790008091190590911A05A0911B05B0911C0527
:1017A000181619061A061B06C4F4809119059091A3
:1017B0001A05A0911B05B0911C050197A109B1095B
:1017C0008093190590931A05A0931B05B0931C05EF
:1017D00004C0809114020E948B0BFF91EF91BF9186
:1017E000AF919F918F917F916F915F914F913F91B9
:1017F0002F910F900BBE0F900FBE0F901F9018955A
:10180000883008F06DC0E82FF0E0EE0FFF1FE55DB7
:10181000FA4F7183608390E0FC013197E730F10566
:1018200090F5EE58FF4F0C946312809169008C7F05
:10183000842B80936900E89A089580916900440F91
:10184000551F440F551F837F842B80936900E99AAD
:1018500008958091690074E0440F551F7A95E1F76F
:101860008F7C842B80936900EA9A089580916900A7
:1018700066E0440F551F6A95E1F78F73842B8093C0
:101880006900EB9A089580916A008C7F842B809385
:101890006A00EC9A089580916A00440F551F440F26
:1018A000551F837F842B80936A00ED9A0895809161
:1018B0006A0024E0440F551F2A95E1F78F7C842BA2
:1018C00080936A00EE9A089580916A0096E0440F32
:1018D000551F9A95E1F78F73842B80936A00EF9AD6
:1018E00008951F920F920FB60F9211240BB60F920C
:1018F0002F933F934F935F936F937F938F939F9318
:10190000AF93BF93EF93FF9380912F059091300594
:10191000892B29F0E0912F05F09130051995FF9161
:10192000EF91BF91AF919F918F917F916F915F9157
:101930004F913F912F910F900BBE0F900FBE0F90C4
:101940001F9018951F920F920FB60F9211240BB68D
:101950000F922F933F934F935F936F937F938F9348
:101960009F93AF93BF93EF93FF9380913105909135
:101970003205892B29F0E0913105F0913205199556
:10198000FF91EF91BF91AF919F918F917F916F9157
:101990005F914F913F912F910F900BBE0F900FBE13
:1019A0000F901F9018951F920F920FB60F9211244F
:1019B0000BB60F922F933F934F935F936F937F9349
:1019C0008F939F93AF93BF93EF93FF9380913305D2
:1019D00090913405892B29F0E0913305F09134057D
:1019E0001995FF91EF91BF91AF919F918F917F9149
:1019F0006F915F914F913F912F910F900BBE0F9080
:101A00000FBE0F901F9018951F920F920FB60F9256
:101A100011240BB60F922F933F934F935F936F93C5
:101A20007F938F939F93AF93BF93EF93FF93809197
:101A3000350590913605892B29F0E0913505F09117
:101A400036051995FF91EF91BF91AF919F918F91BD
:101A50007F916F915F914F913F912F910F900BBEAE
:101A60000F900FBE0F901F9018951F920F920FB6F8
:101A70000F9211240BB60F922F933F934F935F93C6
:101A80006F937F938F939F93AF93BF93EF93FF9346
:101A900080912B0590912C05892B29F0E0912B0545
:101AA000F0912C051995FF91EF91BF91AF919F9106
:101AB0008F917F916F915F914F913F912F910F90F7
:101AC0000BBE0F900FBE0F901F9018951F920F9294
:101AD0000FB60F9211240BB60F922F933F934F9393
:101AE0005F936F937F938F939F93AF93BF93EF9386
:101AF000FF9380912D0590912E05892B29F0E0917F
:101B00002D05F0912E051995FF91EF91BF91AF91A1
:101B10009F918F917F916F915F914F913F912F9105
:101B20000F900BBE0F900FBE0F901F9018951F9235
:101B30000F920FB60F9211240BB60F922F933F9373
:101B40004F935F936F937F938F939F93AF93BF93C5
:101B5000EF93FF938091370590913805892B29F0F9
:101B6000E0913705F09138051995FF91EF91BF91FC
:101B7000AF919F918F917F916F915F914F913F9125
:101B80002F910F900BBE0F900FBE0F901F901895C6
:101B90001F920F920FB60F9211240BB60F922F9334
:101BA0003F934F935F936F937F938F939F93AF93E5
:101BB000BF93EF93FF938091390590913A05892B5C
:101BC00029F0E0913905F0913A051995FF91EF91CF
:101BD000BF91AF919F918F917F916F915F914F9145
:101BE0003F912F910F900BBE0F900FBE0F901F9043
:101BF00018950E94A50E0E94C601C3E7D5E00E9479
:101C00000F022097E1F30E947305F9CF1F920F9204
:101C10000FB60F9211242F933F938F939F93AF93FF
:101C2000BF9380913C0590913D05A0913E05B091F8
:101C30003F0530913B0523E0230F2D3720F401961B
:101C4000A11DB11D05C026E8230F0296A11DB11DDF
:101C500020933B0580933C0590933D05A0933E0562
:101C6000B0933F058091400590914105A0914205B8
:101C7000B09143050196A11DB11D8093400590933D
:101C80004105A0934205B0934305BF91AF919F9149
:101C90008F913F912F910F900FBE0F901F9018952D
:101CA0002FB7F89460913C0570913D0580913E05F9
:101CB00090913F052FBF08953FB7F894809140055C
:101CC00090914105A0914205B091430526B5A89B8E
:101CD00005C02F3F19F00196A11DB11D3FBF66271A
:101CE000782F892F9A2F620F711D811D911D42E05F
:101CF000660F771F881F991F4A95D1F70895CF92D5
:101D0000DF92EF92FF92CF93DF936B017C010E94F1
:101D10005C0EEB01C114D104E104F10479F00E94DE
:101D20005C0E6C1B7D0B683E7340A0F381E0C81A0B
:101D3000D108E108F108C851DC4FECCFDF91CF9119
:101D4000FF90EF90DF90CF900895789484B58260F3
:101D500084BD84B5816084BD85B5826085BD85B54F
:101D6000816085BDEEE6F0E0808181608083E1E8FE
:101D7000F0E0108280818260808380818160808336
:101D8000E0E8F0E0808181608083E1EBF0E0808139
:101D900084608083E0EBF0E0808181608083E1E912
:101DA000F0E0808182608083808181608083E0E9CF
:101DB000F0E0808181608083E1EAF0E080818260F0
:101DC0008083808181608083E0EAF0E080818160AF
:101DD0008083E1E2F1E080818260808380818160A4
:101DE0008083E0E2F1E0808181608083EAE7F0E0D7
:101DF0008081846080838081826080838081816033
:101E000080838081806880831092C100089586332A
:101E100008F0865320917B00982F9870277F922B93
:101E200090937B0087702091150290E4299F900188
:101E30001124822B80937C0080917A0080648093AF
:101E40007A0080917A0086FDFCCF80917800209105
:101E5000790090E0922B089590E0FC013197E131F8
:101E6000F10508F048C0E758FF4F0C9463128091C9
:101E700080008F7703C0809180008F7D80938000E9
:101E8000089584B58F7702C084B58F7D84BD089591
:101E90008091B0008F7703C08091B0008F7D8093D8
:101EA000B0000895809190008F7707C080919000D6
:101EB0008F7D03C080919000877F8093900008956C
:101EC0008091A0008F7707C08091A0008F7D03C014
:101ED0008091A000877F8093A000089580912001C9
:101EE0008F7707C0809120018F7D03C080912001F2
:101EF000877F809320010895CF93DF9390E0FC01CA
:101F0000E55AFE4F2491FC01EF55FE4F8491882342
:101F100049F190E0880F991FFC01E55EFD4FA59106
:101F2000B4918F5F9D4FFC01C591D4919FB7611112
:101F300008C0F8948C91209582238C938881822309
:101F40000AC0623051F4F8948C91322F309583237B
:101F50008C938881822B888304C0F8948C91822B87
:101F60008C939FBFDF91CF9108950F931F93CF93D1
:101F7000DF931F92CDB7DEB7282F30E0F901EB5E7B
:101F8000FE4F8491F901E55AFE4F1491F901EF5586
:101F9000FE4F04910023C9F0882321F069830E9439
:101FA0002C0F6981E02FF0E0EE0FFF1FEF5FFD4F78
:101FB000A591B4919FB7F8948C91611103C01095CD
:101FC000812301C0812B8C939FBF0F90DF91CF9114
:101FD0001F910F910895CF93DF93282F30E0F901DF
:101FE000EB5EFE4F8491F901E55AFE4FD491F90161
:101FF000EF55FE4FC491CC2391F081110E942C0F1C
:10200000EC2FF0E0EE0FFF1FE951FE4FA591B491C8
:102010002C912D2381E090E021F480E002C080E04B
:1020200090E0DF91CF9108955058BB27AA270ED09A
:102030004DC13ED130F043D120F031F49F3F11F437
:102040001EF433C10EF4E095E7FB29C1E92F4FD10F
:1020500080F3BA17620773078407950718F071F4C5
:102060009EF567C10EF4E0950B2EBA2FA02D0B0143
:10207000B90190010C01CA01A0011124FF27591BCD
:1020800099F0593F50F4503E68F11A16F040A22FD3
:10209000232F342F4427585FF3CF46953795279544
:1020A000A795F0405395C9F77EF41F16BA0B620B43
:1020B000730B840BBAF09150A1F0FF0FBB1F661F8A
:1020C000771F881FC2F70EC0BA0F621F731F841FCD
:1020D00048F4879577956795B795F7959E3F08F0F3
:1020E000B3CF9395880F08F09927EE0F97958795B2
:1020F00008950CD0EBC0E3D040F0DAD030F021F4FA
:102100005F3F19F0CCC0511115C1CFC0F0D098F38A
:102110009923C9F35523B1F3951B550BBB27AA2768
:1021200062177307840738F09F5F5F4F220F331FDA
:10213000441FAA1FA9F333D00E2E3AF0E0E830D0A6
:1021400091505040E695001CCAF729D0FE2F27D0A9
:10215000660F771F881FBB1F261737074807AB0777
:10216000B0E809F0BB0B802DBF01FF2793585F4FEC
:102170002AF09E3F510568F092C0DCC05F3FECF34F
:10218000983EDCF3869577956795B795F7959F5FB1
:10219000C9F7880F911D9695879597F90895E1E005
:1021A000660F771F881FBB1F621773078407BA0764
:1021B00020F0621B730B840BBA0BEE1F88F7E095BF
:1021C000089504D06894B111B5C0089598D088F0EE
:1021D0009F5790F0B92F9927B751A0F0D1F0660F13
:1021E000771F881F991F1AF0BA95C9F712C0B1302E
:1021F00081F09FD0B1E008959CC0672F782F882789
:10220000B85F39F0B93FCCF3869577956795B3956C
:10221000D9F73EF490958095709561957F4F8F4FDB
:102220009F4F0895E89409C097FB3EF490958095E0
:10223000709561957F4F8F4F9F4F9923A9F0F92F8C
:1022400096E9BB279395F695879577956795B7950A
:10225000F111F8CFFAF4BB0F11F460FF1BC06F5FF0
:102260007F4F8F4F9F4F16C0882311F096E911C002
:10227000772321F09EE8872F762F05C0662371F023
:1022800096E8862F70E060E02AF09A95660F771F37
:10229000881FDAF7880F9695879597F9089597F92B
:1022A0009F6780E870E060E008959FEF80EC0895FC
:1022B00000240A9416161706180609060895002425
:1022C0000A9412161306140605060895092E03949F
:1022D000000C11F4882352F0BB0F40F4BF2B11F413
:1022E00060FF04C06F5F7F4F8F4F9F4F089557FD72
:1022F0009058440F551F59F05F3F71F04795880F74
:1023000097FB991F61F09F3F79F08795089512160A
:1023100013061406551FF2CF4695F1DF08C01616B6
:1023200017061806991FF1CF869571056105089467
:102330000895E894BB2766277727CB0197F908957E
:102340000BD0C4CFB5DF28F0BADF18F0952309F021
:10235000A6CFABCF1124EECFCADFA0F3959FD1F368
:10236000950F50E0551F629FF001729FBB27F00D43
:10237000B11D639FAA27F00DB11DAA1F649F662798
:10238000B00DA11D661F829F2227B00DA11D621FE7
:10239000739FB00DA11D621F839FA00D611D221FA1
:1023A000749F3327A00D611D231F849F600D211D85
:1023B000822F762F6A2F11249F5750408AF0E1F028
:1023C00088234AF0EE0FFF1FBB1F661F771F881F71
:1023D00091505040A9F79E3F510570F060CFAACFB1
:1023E0005F3FECF3983EDCF3869577956795B7955C
:1023F000F795E7959F5FC1F7FE2B880F911D969586
:10240000879597F908950E946912A59F900DB49F32
:10241000900DA49F800D911D1124089597FB072E08
:1024200016F4009407D077FD09D00E94781207FCBB
:1024300005D03EF4909581959F4F089570956195D4
:102440007F4F0895A1E21A2EAA1BBB1BFD010DC0F0
:10245000AA1FBB1FEE1FFF1FA217B307E407F50754
:1024600020F0A21BB30BE40BF50B661F771F881F30
:10247000991F1A9469F760957095809590959B01C6
:10248000AC01BD01CF010895052E97FB1EF4009409
:102490000E945B1257FD07D00E94221207FC03D056
:1024A0004EF40C945B1250954095309521953F4F1A
:1024B0004F4F5F4F089590958095709561957F4F30
:1024C0008F4F9F4F0895EE0FFF1F0590F491E02D61
:1024D0001994A29FB001B39FC001A39F700D811DED
:1024E0001124911DB29F700D811D1124911D08951D
:1024F000AA1BBB1B51E107C0AA1FBB1FA617B7072A
:1025000010F0A61BB70B881F991F5A95A9F7809545
:102510009095BC01CD0108950790F691E02D199496
:04252000F894FFCF5D
:102524000000803F450032000000D80E1400EE0287
:10253400204E0000FF01000000004D044708F30393
:062544002004050442041E
:00000001FF
