:100000000C945F010C942F130C9460130C949113B7
:100010000C94C2130C94F3130C9424140C945514E4
:100020000C9486140C9490010C9490010C94900103
:100030000C9490010C945E120C9490010C9490011D
:100040000C9490010C9490010C9490010C949001EC
:100050000C9490010C9490010C9490010C94B714A2
:100060000C9490010C9449090C94390A0C94900159
:100070000C9490010C9490010C9490010C949001BC
:100080000C9490010C9490010C9490010C949001AC
:100090000C947D090C94780A0C9490010C949001B6
:1000A0000C9490010C9490010C9490010C9490018C
:1000B0000C9490010C9490010C9490010C9490017C
:1000C0000C9490010C9490010C9490010C94B10943
:1000D0000C94B70A0C9490010C94E5090C94F60A60
:1000E0000C9490010913D312DB12E712F4121513CA
:1000F0002213CD15D015C315C7150716D415D8155D
:10010000DE15E215E615EC15F015F4150716FA15CF
:10011000FE150216020000090A02080B0C0D070664
:1001200003040100000000000000000000000000C7
:1001300000000000000000000000000000000000BF
:100140000011100F0000000000000000000000007F
:10015000000000000000000000000001021020204C
:10016000080810204010204080020102010804020B
:100170000101020408102040808040201008040281
:1001800001800402018040201008040201080402DA
:1001900001010204081020408001020408102040E0
:1001A0008005050505070508080808020202020A7D
:1001B0000A0808040404040101010101010101030A
:1001C00003030303030303040707070C0C0C0C0CC5
:1001D0000C0C0C0202020206060606060606060BB8
:1001E0000B0B0B0B0B0B0B00002000230026002930
:1001F000002C002F0032000001000003010601095D
:100200000100002200250028002B002E00310034C0
:100210000002010000050108010B0100002100247B
:100220000027002A002D00300033000101000004E7
:100230000107010A01000C9407160C94FA150C949E
:10024000EC0C0C94C7150C94E2150C94AA080C94B1
:10025000C5080C9409130C94B60B0C94FE150C9461
:10026000DB120C94D4150C94D0150C9402160C943B
:10027000EC150C94F0150C94180A0C9415130C94AE
:10028000C3150C94E7120C94D3120C94CD150C9456
:1002900022130C9498080C94E7080C94DE150C9427
:1002A000F4120C94D8150C94F2080C9467080C9472
:1002B000F4150C9492010C94E6156708B60B112402
:1002C0001FBECFEFD1E2DEBFCDBF00E00CBF12E01A
:1002D000A0E0B2E0E6EDF2E300E00BBF02C0079061
:1002E0000D92AE3EB107D9F716E0AEEEB2E001C016
:1002F0001D92A532B107E1F712E0CEEBD2E000E0AB
:1003000006C022970109FE010BBF0E944F19CA3B8C
:10031000D10780E00807A9F70E9402040C9469192C
:100320000C940000CF93DF9300D01F92CDB7DEB7BF
:100330000E940D1520913103309132034091330317
:100340005091340329833A834B835C830E94A9171D
:1003500029813A814B815C810E94A7166093350305
:100360007093360380933703909338030E940D15E2
:100370000E94A91760933103709332038093330373
:10038000909334030F900F900F900F90DF91CF91C7
:100390000895CF93DF938AE10E9477169093240308
:1003A000809323038CE10E947716EC019093220343
:1003B0008093210380912303909124038130910540
:1003C00041F420911F03309120032130310599F52C
:1003D00009C0009709F06EC020911F0330912003DF
:1003E000232B91F5209741F420911F033091200396
:1003F00021303105E9F409C0C130D105C9F420919B
:100400001F0330912003232B99F42091170330917F
:1004100018034091190350911A0360911B037091C6
:100420001C0380911D0390911E030E94A81636C0E4
:100430008130910539F480911F0390912003892B1D
:1004400049F038C0892BB1F580911F0390912003AA
:10045000019781F5C130D10539F480911F03909146
:100460002003892B49F026C0209721F580911F0396
:10047000909120030197F1F4209117033091180314
:100480004091190350911A0360911B0370911C0352
:1004900080911D0390911E030E94A71660931B0379
:1004A00070931C0380931D0390931E03D09320032D
:1004B000C0931F03DF91CF910895CF92DF92EF9207
:1004C000FF9261E070E084E296E00E94A016482F5F
:1004D00050E060E070E0409307035093080360939E
:1004E000090370930A03282F30E0A4E6B0E00E94CD
:1004F000C618C0900C02D0900D02E0900E02F09051
:100500000F026C157D058E059F0541F060930C026E
:1005100070930D0280930E0290930F0262E070E0E0
:1005200084E296E00E94A016282F30E03093060364
:100530002093050324E6829FA001112420910A0242
:1005400030910B024217530741F02AE0829FC0010D
:10055000112490930B0280930A0263E070E084E21E
:1005600096E00E94A016682F70E080E090E00E9464
:10057000A9176B017C016093FF02709300038093C5
:1005800001039093020320910602309107024091EB
:100590000802509109020E940C17882341F0C09272
:1005A0000602D0920702E0920802F092090264E08B
:1005B00070E084E296E00E94A016282F30E030938D
:1005C00004032093030324E6829FC0011124209199
:1005D0000402309105028217930721F090930502DF
:1005E0008093040265E070E084E296E00E94A01629
:1005F00090E09093FC028093FB022091FD023091E9
:10060000FE028217930721F09093FE028093FD0271
:1006100061E172E08FE993E00E94470D62E272E0CF
:100620008FE993E00E942A0D40910C0250910D0237
:1006300060910E0270910F022AE030E08FE993E0A2
:100640000E941C0E6BE272E08FE993E00E942A0D7B
:1006500060910A0270910B024AE050E08FE993E04A
:100660000E94040E62E372E08FE993E00E942A0D7B
:1006700040910602509107026091080270910902B0
:1006800022E030E08FE993E00E941B0F6CE372E000
:100690008FE993E00E942A0D609104027091050297
:1006A0004AE050E08FE993E00E94040E68E472E0B3
:1006B0008FE993E00E942A0D6091FD027091FE0285
:1006C0004AE050E08FE993E0FF90EF90DF90CF9009
:1006D0000C94040EAF92BF92CF92DF92EF92FF92F2
:1006E0000F931F93CF93DF935B0169017A01C4E6F7
:1006F000D0E0BE010E94E018462F61E070E084E285
:1007000096E00E94A316C5016AE070E00E94E0181E
:10071000462F62E070E084E296E00E94A316C701D3
:10072000B6010E947D17462F63E070E084E296E0F8
:100730000E94A316C801BE010E94E018462F64E083
:1007400070E084E296E00E94A3168091EE02813070
:1007500081F460E572E08FE993E0DF91CF911F9122
:100760000F91FF90EF90DF90CF90BF90AF900C94DF
:10077000470DDF91CF911F910F91FF90EF90DF9088
:10078000CF90BF90AF90089560E081E20E94411643
:1007900060E08BE10E94411660E087E10E94411613
:1007A00060E088E10E94411661E082E20E94411609
:1007B00062E370E080E090E00E94301560E082E249
:1007C0000E94411628EC30E040E050E060ED77E018
:1007D00088E00E942D0F60ED77E080E090E00E94BD
:1007E000301561E081E20E94411661E08BE10E94D8
:1007F000411661E087E10E94411661E088E10E94B4
:10080000411608950E94561561E08DE00E94081679
:1008100060E08DE00E94411640E052EC61E070E043
:100820008FE993E00E94350B60EC72E08FE993E072
:100830000E94470D62E672E08FE993E00E94470D47
:100840006CE672E08FE993E00E94470D6DE772E07D
:100850008FE993E00E94470D60EC72E08FE993E02E
:100860000E94470D61E081E20E94081661E08BE181
:100870000E94081661E087E10E94081661E088E1A5
:100880000E94081660E08AE10E94081660E08CE190
:100890000E94081660E083E20E94081661E081E28F
:1008A0000E94411661E08BE10E94411661E087E100
:1008B0000E94411661E088E10E9441160E940115E4
:1008C000CB0188579C4E6C01EE24D7FCE094FE2CA3
:1008D00083E20E947716019709F456C061E082E234
:1008E0000E9408160E9401156B017C0140E855E248
:1008F00060E070E089E393E00E94350B42E050E055
:1009000062E971E080E00E94BE120E9401152B0195
:100910003C010E945D0280910C0290910D02A09119
:100920000E02B0910F028093F7029093F802A09309
:10093000F902B093FA0280910A0290910B0290930F
:10094000F6028093F5028091040290910502909343
:10095000F4028093F3028091060290910702A09125
:100960000802B09109028093EF029093F002A093E5
:10097000F102B093F2020E94C403C1E0D0E028E18A
:10098000222E2AE0322E70C10E940115C616D7060B
:10099000E806F90608F09CCF83E20E9477160197DB
:1009A00009F096CF81E08093EE0260E081E20E9440
:1009B000411668EE73E080E090E00E94301561E03F
:1009C00081E20E94411660E088E10E94411668EED3
:1009D00073E080E090E00E94301561E088E10E94C1
:1009E000411660E08BE10E94411668EE73E080E002
:1009F00090E00E94301561E08BE10E94411660E0BA
:100A000087E10E94411668EE73E080E090E00E946A
:100A1000301561E087E10E94411663E972E08FE9D9
:100A200093E00E942A0DC0E0D0E064E670E080E030
:100A300090E00E94301560E272E08FE993E0C431EB
:100A4000D10519F00E942A0D02C00E94470D21967F
:100A5000C531D10551F742CF8091250390912603EE
:100A6000843691050CF409C183E20E9477168C014B
:100A70008130910509F0D7C2A0900F03B090100308
:100A800083E20E947716A816B90609F4CCC20E9428
:100A9000011580900B0390900C03A0900D03B09073
:100AA0000E03681979098A099B09809000029090C9
:100AB0000102A0900202B090030286169706A806D3
:100AC000B90608F0B0C20E94011560930B03709341
:100AD0000C0380930D0390930E0310931003009367
:100AE0000F03809115039091160390931403809344
:100AF00013030196853091050CF490C210921603F1
:100B00001092150361E081E20E94411661E08BE1E1
:100B10000E94411661E087E10E94411661E088E190
:100B20000E94411610921203109211032091150396
:100B300030911603809113039091140328173907FD
:100B400009F0B0C00E9401154B015C01D701C6013C
:100B50000A96A11DB11D88169906AA06BB0608F4BF
:100B600057C28091150390911603892B09F450C246
:100B70000E94C9010E940115930182010053184F80
:100B80002F4F3F4F061717072807390708F43AC2B7
:100B90008091290390912A0390932803809327033F
:100BA00080912B0390912C0390932A038093290327
:100BB00080912D0390912E0390932C0380932B030F
:100BC00080912F039091300390932E0380932D03F7
:100BD000609135037091360380913703909138030B
:100BE00020E030E040E850E40E945F189B01AC0137
:100BF00060E074E284E799E40E94101720E030E09E
:100C000040E752E40E945F180E9478177093300307
:100C100060932F038091270390912803E09129038B
:100C2000F0912A0360912B0370912C0340912D03C6
:100C300050912E0320912F03309130038E0F9F1F70
:100C4000860F971F840F951F820F931F65E070E03A
:100C50000E94E01870932603609325032114310449
:100C600009F0D9C1750164010E94011561327F4B01
:100C70008240910508F4F8CEEFCE80911503909153
:100C80001603892B09F0F0CE8091EE028111ECCE93
:100C900020ED37E040E050E060EA7FE088E00E942D
:100CA0002D0FE2CE8091110390911203892B09F050
:100CB00049CF61E081E20E94411661E08BE10E9430
:100CC000411661E087E10E94411661E088E10E94DF
:100CD000411680911303909114038230910559F1CC
:100CE000B4F4019709F046C060911B0370911C0396
:100CF00080911D0390911E030E94781760930C024F
:100D000070930D0280930E0290930F0233C08330D4
:100D1000910501F1049771F560911B0370911C031B
:100D200080911D0390911E030E9478177093050215
:100D3000609304021FC060911B0370911C0380919B
:100D40001D0390911E030E94781770930B0260930D
:100D50000A0210C080911B0390911C03A0911D03F7
:100D6000B0911E038093060290930702A09308029D
:100D7000B093090200911503109116030115110596
:100D800009F4A2C00230110509F457C04CF5013036
:100D9000110509F0D7CE60910C0270910D0280917F
:100DA0000E0290910F020E94AB1760931B03709389
:100DB0001C0380931D0390931E0380E090E0A8E441
:100DC000B2E48093170390931803A0931903B09390
:100DD0001A03109312030093110360E08BE10FC11B
:100DE0000330110509F44EC00430110509F0AACEF4
:100DF0006091040270910502882777FD8095982FF5
:100E00000E94AB1760931B0370931C0380931D0318
:100E100090931E0380E090E0A8E4B2E4809317036F
:100E200090931803A0931903B0931A03D09312035D
:100E3000C093110360E081E2E2C060910A02709108
:100E40000B02882777FD8095982F0E94AB1760933F
:100E50001B0370931C0380931D0390931E0380E07B
:100E600090E0A8ECB1E48093170390931803A0934B
:100E70001903B0931A03D0931203C093110360E0D7
:100E800087E1BDC08091060290910702A0910802FF
:100E9000B091090280931B0390931C03A0931D0340
:100EA000B0931E03D0931203C093110380E090E02F
:100EB000A0E0BFE38093170390931803A093190356
:100EC000B0931A0360E09AC08090060290900702E7
:100ED000A0900802B0900902A50194016091EF0270
:100EE0007091F0028091F1029091F2020E940C1731
:100EF00060910A0270910B020091040210910502A8
:100F0000811123C08091F5029091F6028617970710
:100F1000E1F48091F3029091F40280179107A9F413
:100F20002091F7023091F8024091F9025091FA02B3
:100F300080910C0290910D02A0910E02B0910F02CF
:100F4000281739074A075B07C1F1A5019401809171
:100F50000C0290910D020E946A0380910C02909104
:100F60000D02A0910E02B0910F028093F7029093B0
:100F7000F802A093F902B093FA0280910A029091CC
:100F80000B029093F6028093F502809106029091F5
:100F90000702A0910802B09109028093EF0290939A
:100FA000F002A093F102B093F202809104029091BA
:100FB00005029093F4028093F30210921B031092A7
:100FC0001C0310921D0310921E031092170310921F
:100FD00018031092190310921A03D0931203C093AE
:100FE000110361E081E20E94411661E08BE10E9401
:100FF000411661E087E10E94411661E088E10E94AC
:101000004116A0CD8091EE02813009F0C1CD16C00D
:1010100046015701BDCD0E94180A24CE90931603B5
:10102000809315037FCD83E20E947716892B09F008
:101030007DCD1092100310920F0378CD60911503AF
:10104000709116034AE050E08FE993E00E94FC0D96
:1010500060EB72E08FE993E00E942A0D40911B0340
:1010600050911C0360911D0370911E0322E030E03B
:101070008FE993E00E94190F61EC72E08FE993E031
:101080000E942A0D60911703709118038091190333
:1010900090911A039B01AC010E94A816AB01BC0100
:1010A00022E030E08FE993E00E94190F68EC72E0D3
:1010B0008FE993E00E94470D60EC72E08FE993E0C6
:1010C0000E94470D0E9401152B013C0161CD8091CA
:1010D0000C0290910D02A0910E02B0910F0280932C
:1010E000F7029093F802A093F902B093FA0280916C
:1010F0000A0290910B029093F6028093F502809180
:101100000402909105029093F4028093F30280917F
:10111000060290910702A0910802B0910902809303
:10112000EF029093F002A093F102B093F2020895BF
:10113000FC0124853585F901E05CFF4F80819181B8
:10114000F901EE5BFF4F20813181821B930B8F737E
:1011500099270895FC0184859585FC01E05CFF4F8B
:1011600040815181FC01EE5BFF4F208131814217AC
:10117000530741F00190F081E02DE80FF91F8081C5
:1011800090E008958FEF9FEF0895FC018485958589
:10119000FC01E05CFF4F40815181FC01EE5BFF4FA1
:1011A000208131814217530779F0A081B181A80FC6
:1011B000B91F8C91208131812F5F3F4F2F733327CF
:1011C0003183208390E008958FEF9FEF0895FC0115
:1011D00081A1882329F0A489B5898C9186FFFBCF52
:1011E00011A20895CF93DF93FC0126853785D9019D
:1011F000A05CBF4F8D919C91119701968F73992799
:10120000E901CE5BDF4F4881598184179507D9F3F7
:101210000D90BC91A02DA20FB31F6C93A685B7852E
:10122000A05CBF4F11969C938E93A689B7892C9191
:1012300081E090E0078C02C0880F991F0A94E2F7C2
:10124000282B2C9381E081A30488F589E02D8081EF
:101250008064808381E090E0DF91CF910895FB016D
:10126000E05CFF4F208131812F5F3F4F2F73332789
:10127000DB01AE5BBF4F4D915C912417350739F010
:10128000A081B181A60FB71F8C933183208308956D
:1012900008951F920F920FB60F9211240BB60F9262
:1012A0002F933F934F935F936F937F938F939F936E
:1012B000AF93BF93EF93FF938091C00082FD07C06F
:1012C0008091C6006DE975E00E942F0902C08091EF
:1012D000C600FF91EF91BF91AF919F918F917F9148
:1012E0006F915F914F913F912F910F900BBE0F9097
:1012F0000FBE0F901F90189508951F920F920FB672
:101300000F9211240BB60F922F933F934F935F933D
:101310006F937F938F939F93AF93BF93EF93FF93BD
:101320008091C80082FD07C08091CE0065E175E024
:101330000E942F0902C08091CE00FF91EF91BF91D2
:10134000AF919F918F917F916F915F914F913F915D
:101350002F910F900BBE0F900FBE0F901F901895FE
:1013600008951F920F920FB60F9211240BB60F9291
:101370002F933F934F935F936F937F938F939F939D
:10138000AF93BF93EF93FF938091D00082FD07C08E
:101390008091D6006DE874E00E942F0902C0809110
:1013A000D600FF91EF91BF91AF919F918F917F9167
:1013B0006F915F914F913F912F910F900BBE0F90C6
:1013C0000FBE0F901F90189508951F920F920FB6A1
:1013D0000F9211240BB60F922F933F934F935F936D
:1013E0006F937F938F939F93AF93BF93EF93FF93ED
:1013F0008091300182FD07C08091360165E074E084
:101400000E942F0902C080913601FF91EF91BF9198
:10141000AF919F918F917F916F915F914F913F918C
:101420002F910F900BBE0F900FBE0F901F9018952D
:101430008FE993E00E949808892B11F00E944809D7
:101440008DE793E00E949808892B11F00E947C0997
:101450008BE593E00E949808892B11F00E94B00957
:1014600089E393E00E949808892B11F00C94E40919
:1014700008951F920F920FB60F9211240BB60F9280
:101480002F933F938F939F93EF93FF932091990511
:1014900030919A0580919B0590919C0528173907FA
:1014A00031F48091C1008F7D8093C10014C0E09120
:1014B0009B05F0919C05E75AFA4F208180919B058E
:1014C00090919C0501968F73992790939C0580932A
:1014D0009B052093C600FF91EF919F918F913F91C3
:1014E0002F910F900BBE0F900FBE0F901F9018956D
:1014F0001F920F920FB60F9211240BB60F922F93DB
:101500003F938F939F93EF93FF9320911105309119
:10151000120580911305909114052817390731F4AD
:101520008091C9008F7D8093C90014C0E09113059C
:10153000F0911405EF52FB4F20818091130590919B
:10154000140501968F7399279093140580931305C2
:101550002093CE00FF91EF919F918F913F912F911A
:101560000F900BBE0F900FBE0F901F9018951F92FB
:101570000F920FB60F9211240BB60F922F933F9339
:101580008F939F93EF93FF932091890430918A0466
:1015900080918B0490918C042817390731F4809145
:1015A000D1008F7D8093D10014C0E0918B04F09125
:1015B0008C04E75BFB4F208180918B0490918C041D
:1015C00001968F73992790938C0480938B042093BA
:1015D000D600FF91EF919F918F913F912F910F90A6
:1015E0000BBE0F900FBE0F901F9018951F920F9279
:1015F0000FB60F9211240BB60F922F933F938F9338
:101600009F93EF93FF932091010430910204809106
:101610000304909104042817390731F480913101B3
:101620008F7D8093310114C0E0910304F091040494
:10163000EF53FC4F208180910304909104040196A4
:101640008F739927909304048093030420933601A9
:10165000FF91EF919F918F913F912F910F900BBE32
:101660000F900FBE0F901F901895CF92DF92EF92C0
:10167000FF92CF93DF93EC016A017B01411581EE6C
:10168000580761057105F9F0EC89FD8981E090E06A
:1016900008A002C0880F991F0A94E2F7808360E0D7
:1016A00079E08DE390E0A70196010E94F4182150A3
:1016B00031094109510956954795379527952115C7
:1016C00080E1380798F0EC89FD89108260E874E8C1
:1016D0008EE190E0A70196010E94F4182150310993
:1016E000410951095695479537952795E889F98914
:1016F0003083EA89FB89208319A2EE89FF89408122
:1017000081E090E09C010C8C02C0220F331F0A94F0
:10171000E2F7422B4083EE89FF8940819C010D8CCA
:1017200002C0220F331F0A94E2F7422B4083EE8956
:10173000FF8940819C010E8C02C0220F331F0A9446
:10174000E2F7422B4083EE89FF8920810F8C02C093
:10175000880F991F0A94E2F7809582238083DF9196
:10176000CF91FF90EF90DF90CF900895CF9310929C
:10177000A2031092A10388EE93E0A0E0B0E0809372
:10178000A3039093A403A093A503B093A60325ED10
:1017900032E03093A00320939F034DE955E050932E
:1017A000AC034093AB0349E555E05093AE0340933F
:1017B000AD0345EC50E05093B0034093AF0344ECCD
:1017C00050E05093B2034093B10340EC50E050938B
:1017D000B4034093B30341EC50E05093B6034093FD
:1017E000B50342EC50E05093B8034093B70346EC86
:1017F00050E05093BA034093B903C4E0C093BB03D5
:10180000F3E0F093BC03E7E0E093BD0375E0709371
:10181000BE0361E06093BF031092800310927F03C8
:101820008093810390938203A0938303B0938403F6
:1018300030937E0320937D0345E155E050938A0366
:101840004093890341ED54E050938C0340938B0304
:101850004DEC50E050938E0340938D034CEC50E0E0
:101860005093900340938F0348EC50E050939203C1
:101870004093910349EC50E05093940340939303B9
:101880004AEC50E050939603409395034EEC50E0A1
:101890005093980340939703C0939903F0939A034E
:1018A000E0939B0370939C0360939D0310925E03EF
:1018B00010925D0380935F0390936003A093610394
:1018C000B093620330935C0320935B034DE854E0D4
:1018D000509368034093670349E454E050936A03CC
:1018E0004093690345ED50E050936C0340936B03C4
:1018F00044ED50E050936E0340936D0340ED50E093
:101900005093700340936F0341ED50E05093720386
:101910004093710342ED50E050937403409373037E
:1019200046ED50E05093760340937503C0937703E0
:10193000F0937803E093790370937A0360937B03C9
:1019400010923C0310923B0380933D0390933E031F
:10195000A0933F03B093400330933A03209339039D
:1019600085E094E0909346038093450381EC93E0F7
:10197000909348038093470385E391E090934A0353
:101980008093490384E391E090934C0380934B034D
:1019900080E391E090934E0380934D0381E391E0C7
:1019A0009093500380934F0382E391E0909352030E
:1019B0008093510386E391E0909354038093530303
:1019C000C0935503F0935603E09357037093580365
:1019D00060935903CF910895CF92DF92EF92FF92D7
:1019E0000F931F93CF93DF936C017A01EB01E60E07
:1019F000F71E00E010E0CE15DF0561F06991D60119
:101A0000ED91FC910190F081E02DC6011995080F30
:101A1000191FF1CFC801DF91CF911F910F91FF9056
:101A2000EF90DF90CF9008956115710581F0DB0193
:101A30000D900020E9F7AD0141505109461B570BAD
:101A4000DC01ED91FC910280F381E02D199480E09E
:101A500090E008950C94140DDC01ED91FC9101903F
:101A6000F081E02D19940F931F93CF93DF93EC0136
:101A70006DE00E942C0D8C016AE0CE010E942C0DBD
:101A8000800F911FDF91CF911F910F9108950F93B8
:101A90001F93CF93DF93EC010E94140D8C01CE01B4
:101AA0000E94330D800F911FDF91CF911F910F91F5
:101AB00008958F929F92AF92BF92CF92DF92EF9252
:101AC000FF920F931F93CF93DF93CDB7DEB7A1970C
:101AD0000FB6F894DEBF0FBECDBF7C01C42EE52F3C
:101AE000CB01D22E19A221E02D1510F02AE0D22E22
:101AF0008E010F5D1F4F8D2C912CA12CB12C6C2DC4
:101B00007E2FA50194010E94F4188C2DD29E80197D
:101B10001124015011098A3014F4805D01C0895CE0
:101B2000F8018083211531054105510521F0C22EB0
:101B3000E32FCA01E4CFB801C7010E94140DA1969A
:101B40000FB6F894DEBF0FBECDBFDF91CF911F91CE
:101B50000F91FF90EF90DF90CF90BF90AF909F904C
:101B60008F900895CF92DF92EF92FF920F931F9381
:101B7000CF93DF93EC016A017B012115310579F4E4
:101B8000E881F9810190F081E02D642FDF91CF9100
:101B90001F910F91FF90EF90DF90CF9019942A3012
:101BA0003105E9F477FF1AC06DE20E942C0D8C011B
:101BB00044275527BA014C195D096E097F092AE0AF
:101BC000CE010E94590D800F911FDF91CF911F917F
:101BD0000F91FF90EF90DF90CF9008952AE0B7012A
:101BE000A601CE01DF91CF911F910F91FF90EF9051
:101BF000DF90CF900C94590D9A01AB01662757FDE9
:101C00006095762F0C94B20D0F931F93CF93DF93B3
:101C1000EC019A01AB01662757FD6095762F0E9473
:101C2000B20D8C01CE010E94330D800F911FDF9108
:101C3000CF911F910F9108950F931F93CF93DF932F
:101C4000EC010E94B20D8C01CE010E94330D800F79
:101C5000911FDF91CF911F910F9108954F925F9245
:101C60006F927F928F929F92AF92BF92CF92DF92AC
:101C7000EF92FF920F931F93CF93DF93EC016A01D2
:101C80007B01B22E9A01AB01C701B6010E94C218B6
:101C9000882319F061EE72E027C026013701E8942D
:101CA00077F82FEF3FEF4FE75FE7C301B2010E94E4
:101CB000C21881110DC02FEF3FEF4FE75FE7C3015F
:101CC000B2010E940C1718161CF465EE72E00CC0ED
:101CD0002FEF3FEF4FE75FE4C701B6010E945B18AB
:101CE0001816ACF469EE72E0CE01DF91CF911F912E
:101CF0000F91FF90EF90DF90CF90BF90AF909F90AB
:101D00008F907F906F905F904F900C94140D2FEFF9
:101D10003FEF4FE75FECC701B6010E940C1787FD4C
:101D2000E1CF20E030E0A901C701B6010E940C1705
:101D300087FF0AC06DE2CE010E942C0D8C01F7FADC
:101D4000F094F7F8F09402C000E010E0A12C60E0FD
:101D500070E080E09FE3AB1441F020E030E040E22F
:101D600051E40E941017A394F6CF9B01AC01C70168
:101D7000B6010E94A8166B017C010E947D172B0101
:101D80003C010E94A9179B01AC01C701B6010E944A
:101D9000A7166B017C012AE0B301A201CE010E94CB
:101DA000590D080F191FBB2039F060E272E0CE0117
:101DB0000E94140D080F191F7B2C772041F120E0A1
:101DC00030E040E251E4C701B6010E945F186B01A8
:101DD0007C010E9478174B01AA2497FCA094BA2C8E
:101DE0002AE030E0B501A401CE010E94B20D080F37
:101DF000191FC501B4010E94AB179B01AC01C701BB
:101E0000B6010E94A7166B017C017A94D6CFC80157
:101E1000DF91CF911F910F91FF90EF90DF90CF90C6
:101E2000BF90AF909F908F907F906F905F904F90FA
:101E300008950C942E0E0F931F93CF93DF93EC0114
:101E40000E942E0E8C01CE010E94330D800F911F37
:101E5000DF91CF911F910F9108953F924F925F9222
:101E60006F927F928F929F92AF92BF92CF92DF92AA
:101E7000EF92FF920F931F93CF93DF9300D01F92A7
:101E8000CDB7DEB78B0129013A0190911002981766
:101E900021F09F3F09F0B6C204C0E4E1F1E03490C4
:101EA00004C180931002E4E1F1E0E491EF3F09F412
:101EB000A9C2E23009F480C074F5EE2309F45BC0D6
:101EC000E13009F0F1C010928000109281009091F1
:101ED000810098609093810090918100916090932F
:101EE0008100282F30E0F901EF55FE4FE491F0E03A
:101EF000EE0FFF1FEF5FFD4F459154915093FF058B
:101F00004093FE05F901E55AFE4F24912093FD050B
:101F100033243394CCC0E43009F49EC00CF474C074
:101F2000E53009F0C1C0109220011092210190917A
:101F300021019860909321019091210191609093EB
:101F40002101282F30E0F901EF55FE4FE491F0E038
:101F5000EE0FFF1FEF5FFD4F459154915093E30546
:101F60004093E205F901E55AFE4F24912093E105E3
:101F700055E0352E9CC014BC15BC94B5926094BD40
:101F800095B5916095BD282F30E0F901EF55FE4FD2
:101F9000E491F0E0EE0FFF1FEF5FFD4F459154918C
:101FA0005093060640930506F901E55AFE4F249129
:101FB00020930406312C7BC01092B0001092B10027
:101FC0009091B00092609093B0009091B1009160B8
:101FD0009093B100282F30E0F901EF55FE4FE491C6
:101FE000F0E0EE0FFF1FEF5FFD4F459154915093CE
:101FF000F8054093F705F901E55AFE4F2491209327
:10200000F60522E0322E53C01092900010929100FB
:1020100090919100986090939100909191009160BF
:1020200090939100282F30E0F901EF55FE4FE49195
:10203000F0E0EE0FFF1FEF5FFD4F4591549150937D
:10204000F1054093F005F901E55AFE4F24912093E4
:10205000EF05B3E03B2E2BC01092A0001092A10020
:102060009091A10098609093A1009091A10091603F
:102070009093A100282F30E0F901EF55FE4FE49135
:10208000F0E0EE0FFF1FEF5FFD4F4591549150932D
:10209000EA054093E905F901E55AFE4F24912093A2
:1020A000E80574E0372E03C03E2E37FCABC161E07B
:1020B0000E9408164801A12CB12C832D8D7F09F0B8
:1020C000C0C060E072E18AE790E0A50194010E943F
:1020D000161929833A834B835C8369017A0181E075
:1020E000C81AD108E108F1089FEFC916D104E1042C
:1020F000F10409F008F49AC060E472E48FE090E023
:10210000A50194010E94161969017A01E1E0CE1A35
:10211000D108E108F108F2E03F1219C08FEFC816AC
:10212000D104E104F10409F008F487C060E970ED1E
:1021300083E090E0A50194010E94161969017A01DB
:1021400091E0C91AD108E108F10883E001C082E0FA
:10215000EFEFCE16D104E104F10409F008F467C0F2
:1021600068E478EE81E090E0A50194010E941619E0
:1021700069017A01F1E0CF1AD108E108F1083320B2
:10218000E1F082E038121BC09FEFC916D104E104D0
:10219000F10409F008F434C164E274EF80E090E0E7
:1021A000A50194010E94161969017A01E1E0CE1A95
:1021B000D108E108F10885E003C083E001C084E0B4
:1021C000FFEFCF16D104E104F10489F180F162E15F
:1021D0007AE780E090E0A50194010E941619690158
:1021E0007A0181E0C81AD108E108F108311002C073
:1021F00084E001C086E09FEFC916D104E104F10438
:10220000B1F0A8F0C980DA80EB80FC809AE0F59408
:10221000E794D794C7949A95D1F7E1E0CE1AD10804
:10222000E108F108332031F087E008C081E0332075
:1022300011F004C085E085BD52C082E08093B100FA
:102240004EC060E072E18AE790E0A50194010E942F
:10225000161969017A01F1E0CF1AD108E108F108F5
:10226000C114D10481E0E806F10488F068E478EE56
:1022700081E090E0A50194010E94161969017A019C
:1022800091E0C91AD108E108F10893E001C091E09A
:10229000E1E03E1207C080918100887F892B809306
:1022A00081001DC0F3E03F1207C080919100887F3C
:1022B000892B8093910013C084E0381207C080916D
:1022C000A100887F892B8093A10009C0E5E03E1220
:1022D00006C080912101887F892B809321014114C0
:1022E00051046104710471F0D801AA0FBB1FA3014E
:1022F00092010E94D51828EE33E040E050E00E94A1
:10230000F41803C02FEF3FEFA901F2E03F1609F4E4
:1023100043C0F315BCF0332081F181E0381272C064
:10232000D0928900C0928800209300063093010665
:10233000409302065093030680916F008260809361
:102340006F0060C094E0391609F448C03916A4F152
:10235000E5E03E1257C0D0922901C0922801209397
:10236000E4053093E5054093E6055093E705809139
:10237000730082608093730045C0C7BC209307063A
:10238000309308064093090650930A0680916E0028
:10239000826080936E0036C0C092B3002093F9052E
:1023A0003093FA054093FB055093FC058091700033
:1023B00082608093700026C0D0929900C0929800ED
:1023C0002093F2053093F3054093F4055093F505FF
:1023D0008091710082608093710014C0D092A90036
:1023E000C092A8002093EB053093EC054093ED05D7
:1023F0005093EE058091720082608093720002C05B
:1024000084E01CCF0F900F900F900F90DF91CF9131
:102410001F910F91FF90EF90DF90CF90BF90AF9002
:102420009F908F907F906F905F904F903F90089516
:102430008230A9F028F4882349F0813051F00895C2
:10244000843009F1E8F0853009F1089510926E00AA
:10245000089580916F008D7F80936F000895809123
:1024600070008D7F8093700081E08093B000809138
:10247000B100887F84608093B1001092B30008950A
:1024800010927100089510927200089510927300D6
:102490000895CF93C82F809110028C1307C0E4E1F8
:1024A000F1E084919FEF9093100201C08FEF0E94A2
:1024B000181260E08C2FCF910C9441161F920F924E
:1024C0000FB60F9211240BB60F922F933F934F9399
:1024D0005F936F937F938F939F93AF93BF93EF938C
:1024E000FF938091F9059091FA05A091FB05B091B9
:1024F000FC05892B8A2B8B2B51F19091F605E091ED
:10250000F705F091F8058081892780838091F9058E
:102510009091FA05A091FB05B091FC0518161906DB
:102520001A061B06C4F48091F9059091FA05A09152
:10253000FB05B091FC050197A109B1098093F9054C
:102540009093FA05A093FB05B093FC0504C080911D
:1025500010020E944912FF91EF91BF91AF919F919C
:102560008F917F916F915F914F913F912F910F903C
:102570000BBE0F900FBE0F901F901895883008F07B
:102580006DC0E82FF0E0EE0FFF1FE55FF94F71839C
:10259000608390E0FC013197E730F10590F5EE584B
:1025A000FF4F0C943519809169008C7F842B8093A8
:1025B0006900E89A089580916900440F551F440FFF
:1025C000551F837F842B80936900E99A0895809139
:1025D000690074E0440F551F7A95E1F78F7C842BD6
:1025E00080936900EA9A08958091690066E0440F3B
:1025F000551F6A95E1F78F73842B80936900EB9ADE
:10260000089580916A008C7F842B80936A00EC9AF5
:10261000089580916A00440F551F440F551F837F12
:10262000842B80936A00ED9A089580916A0024E0DB
:10263000440F551F2A95E1F78F7C842B80936A0005
:10264000EE9A089580916A0096E0440F551F9A957E
:10265000E1F78F73842B80936A00EF9A08951F929D
:102660000F920FB60F9211240BB60F922F933F9338
:102670004F935F936F937F938F939F93AF93BF938A
:10268000EF93FF9380910F0690911006892B29F00C
:10269000E0910F06F09110061995FF91EF91BF910F
:1026A000AF919F918F917F916F915F914F913F91EA
:1026B0002F910F900BBE0F900FBE0F901F9018958B
:1026C0001F920F920FB60F9211240BB60F922F93F9
:1026D0003F934F935F936F937F938F939F93AF93AA
:1026E000BF93EF93FF938091110690911206892B6F
:1026F00029F0E0911106F09112061995FF91EF91E2
:10270000BF91AF919F918F917F916F915F914F9109
:102710003F912F910F900BBE0F900FBE0F901F9007
:1027200018951F920F920FB60F9211240BB60F92AD
:102730002F933F934F935F936F937F938F939F93C9
:10274000AF93BF93EF93FF9380911306909114067C
:10275000892B29F0E0911306F09114061995FF9149
:10276000EF91BF91AF919F918F917F916F915F9109
:102770004F913F912F910F900BBE0F900FBE0F9076
:102780001F9018951F920F920FB60F9211240BB63F
:102790000F922F933F934F935F936F937F938F93FA
:1027A0009F93AF93BF93EF93FF9380911506909102
:1027B0001606892B29F0E0911506F0911606199559
:1027C000FF91EF91BF91AF919F918F917F916F9109
:1027D0005F914F913F912F910F900BBE0F900FBEC5
:1027E0000F901F9018951F920F920FB60F92112401
:1027F0000BB60F922F933F934F935F936F937F93FB
:102800008F939F93AF93BF93EF93FF9380910B06AA
:1028100090910C06892B29F0E0910B06F0910C06A3
:102820001995FF91EF91BF91AF919F918F917F91FA
:102830006F915F914F913F912F910F900BBE0F9031
:102840000FBE0F901F9018951F920F920FB60F9208
:1028500011240BB60F922F933F934F935F936F9377
:102860007F938F939F93AF93BF93EF93FF93809149
:102870000D0690910E06892B29F0E0910D06F0913E
:102880000E061995FF91EF91BF91AF919F918F9196
:102890007F916F915F914F913F912F910F900BBE60
:1028A0000F900FBE0F901F9018951F920F920FB6AA
:1028B0000F9211240BB60F922F933F934F935F9378
:1028C0006F937F938F939F93AF93BF93EF93FF93F8
:1028D0008091170690911806892B29F0E091170630
:1028E000F09118061995FF91EF91BF91AF919F91CB
:1028F0008F917F916F915F914F913F912F910F90A9
:102900000BBE0F900FBE0F901F9018951F920F9245
:102910000FB60F9211240BB60F922F933F934F9344
:102920005F936F937F938F939F93AF93BF93EF9337
:10293000FF938091190690911A06892B29F0E09156
:102940001906F0911A061995FF91EF91BF91AF9179
:102950009F918F917F916F915F914F913F912F91B7
:102960000F900BBE0F900FBE0F901F9018951F92E7
:102970000F920FB60F9211242F933F938F939F9333
:10298000AF93BF9380911C0690911D06A0911E06E7
:10299000B0911F0630911B0623E0230F2D3720F442
:1029A0000196A11DB11D05C026E8230F0296A11DA9
:1029B000B11D20931B0680931C0690931D06A093C7
:1029C0001E06B0931F068091200690912106A091CB
:1029D0002206B09123060196A11DB11D8093200609
:1029E00090932106A0932206B0932306BF91AF9146
:1029F0009F918F913F912F910F900FBE0F901F903D
:102A000018952FB7F89460911C0670911D0680915F
:102A10001E0690911F062FBF08953FB7F89480912E
:102A2000200690912106A0912206B091230626B59A
:102A3000A89B05C02F3F19F00196A11DB11D3FBFF6
:102A40006627782F892F9A2F620F711D811D911D86
:102A500042E0660F771F881F991F4A95D1F70895A6
:102A6000CF92DF92EF92FF92CF93DF936B017C01C5
:102A70000E940D15EB01C114D104E104F10479F0B9
:102A80000E940D156C1B7D0B683E7340A0F381E026
:102A9000C81AD108E108F108C851DC4FECCFDF912A
:102AA000CF91FF90EF90DF90CF900895789484B508
:102AB000826084BD84B5816084BD85B5826085BD3A
:102AC00085B5816085BDEEE6F0E080818160808320
:102AD000E1E8F0E010828081826080838081816003
:102AE0008083E0E8F0E0808181608083E1EBF0E0CA
:102AF000808184608083E0EBF0E08081816080836E
:102B0000E1E9F0E080818260808380818160808360
:102B1000E0E9F0E0808181608083E1EAF0E080819B
:102B200082608083808181608083E0EAF0E0808140
:102B300081608083E1E2F1E0808182608083808136
:102B400081608083E0E2F1E0808181608083EAE758
:102B5000F0E08081846080838081826080838081D6
:102B6000816080838081806880831092C100089595
:102B700090E0FC013197E131F10508F048C0E758D9
:102B8000FF4F0C943519809180008F7703C080919E
:102B900080008F7D80938000089584B58F7702C078
:102BA00084B58F7D84BD08958091B0008F7703C078
:102BB0008091B0008F7D8093B00008958091900047
:102BC0008F7707C0809190008F7D03C08091900027
:102BD000877F8093900008958091A0008F7707C031
:102BE0008091A0008F7D03C08091A000877F80939B
:102BF000A0000895809120018F7707C08091200167
:102C00008F7D03C080912001877F809320010895EC
:102C1000CF93DF9390E0FC01E55AFE4F2491FC0135
:102C2000EF55FE4F8491882349F190E0880F991F5A
:102C3000FC01E55EFD4FA591B4918F5F9D4FFC01B6
:102C4000C591D4919FB7611108C0F8948C912095DB
:102C500082238C93888182230AC0623051F4F894D5
:102C60008C91322F309583238C938881822B88839B
:102C700004C0F8948C91822B8C939FBFDF91CF91ED
:102C800008950F931F93CF93DF931F92CDB7DEB7B5
:102C9000282F30E0F901EB5EFE4F8491F901E55AEF
:102CA000FE4F1491F901EF55FE4F04910023C9F036
:102CB000882321F069830E94B8156981E02FF0E034
:102CC000EE0FFF1FEF5FFD4FA591B4919FB7F894F2
:102CD0008C91611103C01095812301C0812B8C93CD
:102CE0009FBF0F90DF91CF911F910F910895CF93C8
:102CF000DF93282F30E0F901EB5EFE4F8491F9015C
:102D0000E55AFE4FD491F901EF55FE4FC491CC2303
:102D100091F081110E94B815EC2FF0E0EE0FFF1F2B
:102D2000E951FE4FA591B4912C912D2381E090E0C3
:102D300021F480E002C080E090E0DF91CF9108951F
:102D4000CB010C945319CB01642F0C945B19505890
:102D5000BB27AA270ED075C166D130F06BD120F009
:102D600031F49F3F11F41EF45BC10EF4E095E7FBD4
:102D700051C1E92F77D180F3BA176207730784072F
:102D8000950718F071F49EF58FC10EF4E0950B2EA7
:102D9000BA2FA02D0B01B90190010C01CA01A001AD
:102DA0001124FF27591B99F0593F50F4503E68F108
:102DB0001A16F040A22F232F342F4427585FF3CF49
:102DC000469537952795A795F0405395C9F77EF41A
:102DD0001F16BA0B620B730B840BBAF09150A1F063
:102DE000FF0FBB1F661F771F881FC2F70EC0BA0FE9
:102DF000621F731F841F48F4879577956795B79571
:102E0000F7959E3F08F0B3CF9395880F08F0992768
:102E1000EE0F979587950895D9D008F481E008952D
:102E20000CD00FC107D140F0FED030F021F45F3F4D
:102E300019F0F0C0511139C1F3C014D198F399239E
:102E4000C9F35523B1F3951B550BBB27AA2762176E
:102E50007307840738F09F5F5F4F220F331F441FB3
:102E6000AA1FA9F333D00E2E3AF0E0E830D09150EB
:102E70005040E695001CCAF729D0FE2F27D0660FD8
:102E8000771F881FBB1F261737074807AB07B0E817
:102E900009F0BB0B802DBF01FF2793585F4F2AF02D
:102EA0009E3F510568F0B6C000C15F3FECF3983E0D
:102EB000DCF3869577956795B795F7959F5FC9F78A
:102EC000880F911D9695879597F90895E1E0660F13
:102ED000771F881FBB1F621773078407BA0720F08C
:102EE000621B730B840BBA0BEE1F88F7E0950895F5
:102EF00004D06894B111D9C00895BCD088F09F5710
:102F000090F0B92F9927B751A0F0D1F0660F771F35
:102F1000881F991F1AF0BA95C9F712C0B13081F015
:102F2000C3D0B1E00895C0C0672F782F8827B85F5D
:102F300039F0B93FCCF3869577956795B395D9F776
:102F40003EF490958095709561957F4F8F4F9F4F80
:102F50000895E89409C097FB3EF49095809570958C
:102F600061957F4F8F4F9F4F9923A9F0F92F96E9D5
:102F7000BB279395F695879577956795B795F1114A
:102F8000F8CFFAF4BB0F11F460FF1BC06F5F7F4FE7
:102F90008F4F9F4F16C0882311F096E911C07723F9
:102FA00021F09EE8872F762F05C0662371F096E802
:102FB000862F70E060E02AF09A95660F771F881FD1
:102FC000DAF7880F9695879597F90895990F000875
:102FD000550FAA0BE0E8FEEF16161706E807F907EB
:102FE000C0F012161306E407F50798F0621B730B86
:102FF000840B950B39F40A2661F0232B242B252B07
:1030000021F408950A2609F4A140A6958FEF811DA9
:10301000811D089597F99F6780E870E060E008954A
:103020009FEF80EC089500240A94161617061806E0
:103030000906089500240A941216130614060506BC
:103040000895092E0394000C11F4882352F0BB0F4D
:1030500040F4BF2B11F460FF04C06F5F7F4F8F4FB0
:103060009F4F089557FD9058440F551F59F05F3FEB
:1030700071F04795880F97FB991F61F09F3F79F09A
:1030800087950895121613061406551FF2CF46951C
:10309000F1DF08C0161617061806991FF1CF86959E
:1030A0007105610508940895E894BB276627772782
:1030B000CB0197F908958ADF08F48FEF08950BD0BC
:1030C000C0CFB1DF28F0B6DF18F0952309F0A2CF0A
:1030D000A7CF1124EACFC6DFA0F3959FD1F3950FB8
:1030E00050E0551F629FF001729FBB27F00DB11D8C
:1030F000639FAA27F00DB11DAA1F649F6627B00D1C
:10310000A11D661F829F2227B00DA11D621F739F04
:10311000B00DA11D621F839FA00D611D221F749F12
:103120003327A00D611D231F849F600D211D822F59
:10313000762F6A2F11249F5750408AF0E1F08823A0
:103140004AF0EE0FFF1FBB1F661F771F881F9150AD
:103150005040A9F79E3F510570F05CCFA6CF5F3F6E
:10316000ECF3983EDCF3869577956795B795F795E0
:10317000E7959F5FC1F7FE2B880F911D9695879568
:1031800097F9089523DF880B990B0895A29FB0014A
:10319000B39FC001A39F700D811D1124911DB29F8B
:1031A000700D811D1124911D08950E94C618A59FC0
:1031B000900DB49F900DA49F800D911D1124089532
:1031C00097FB072E16F4009407D077FD09D00E94D4
:1031D0003B1907FC05D03EF4909581959F4F0895CB
:1031E000709561957F4F0895A1E21A2EAA1BBB1B13
:1031F000FD010DC0AA1FBB1FEE1FFF1FA217B307C3
:10320000E407F50720F0A21BB30BE40BF50B661FD8
:10321000771F881F991F1A9469F76095709580959C
:1032200090959B01AC01BD01CF010895052E97FB40
:103230001EF400940E942D1957FD07D00E94F41827
:1032400007FC03D04EF40C942D1950954095309501
:1032500021953F4F4F4F5F4F089590958095709502
:1032600061957F4F8F4F9F4F0895EE0FFF1F059081
:10327000F491E02D1994AA1BBB1B51E107C0AA1FB2
:10328000BB1FA617B70710F0A61BB70B881F991F07
:103290005A95A9F780959095BC01CD0108950790A6
:1032A000F691E02D1994F999FECF92BD81BDF89A5F
:1032B000992780B50895262FF999FECF1FBA92BDA0
:1032C00081BD20BD0FB6F894FA9AF99A0FBE019607
:0632D0000895F894FFCF01
:1032D6002C010000D90E0000A841EF02214E00008B
:1032E600FF454550524F4D206C6F616465642E2E2C
:1032F6002E00696E6A5F70773D200069646C653DDB
:103306002000616476616E63653D20007265765FBC
:103316006C696D69743D20006572726F723D2000A4
:10332600454550524F4D20757064617465642E2E6C
:103336002E004546492076312E3061004C2E412E16
:10334600502E20546563686E6963616C00C2A932B1
:103356003031342047696E67657220506F6C6C613E
:103366007264006E6F7720656E746572696E672091
:10337600646961676E6F73746973206D6F6465004D
:103386003C73657474696E67735F6D6F64652C203A
:10339600003C76616C2C20003C61646A5F76616C4F
:1033A6000000000000F208EC0C9808C508AA08E71F
:0E33B600086E616E00696E66006F766600003C
:00000001FF
